{
  "contractName": "NFTulips",
  "abi": [
    {
      "inputs": [],
      "stateMutability": "nonpayable",
      "type": "constructor"
    },
    {
      "anonymous": false,
      "inputs": [
        {
          "indexed": true,
          "internalType": "address",
          "name": "owner",
          "type": "address"
        },
        {
          "indexed": true,
          "internalType": "address",
          "name": "approved",
          "type": "address"
        },
        {
          "indexed": true,
          "internalType": "uint256",
          "name": "tokenId",
          "type": "uint256"
        }
      ],
      "name": "Approval",
      "type": "event"
    },
    {
      "anonymous": false,
      "inputs": [
        {
          "indexed": true,
          "internalType": "address",
          "name": "owner",
          "type": "address"
        },
        {
          "indexed": true,
          "internalType": "address",
          "name": "operator",
          "type": "address"
        },
        {
          "indexed": false,
          "internalType": "bool",
          "name": "approved",
          "type": "bool"
        }
      ],
      "name": "ApprovalForAll",
      "type": "event"
    },
    {
      "anonymous": false,
      "inputs": [
        {
          "indexed": true,
          "internalType": "address",
          "name": "previousOwner",
          "type": "address"
        },
        {
          "indexed": true,
          "internalType": "address",
          "name": "newOwner",
          "type": "address"
        }
      ],
      "name": "OwnershipTransferred",
      "type": "event"
    },
    {
      "anonymous": false,
      "inputs": [
        {
          "indexed": true,
          "internalType": "address",
          "name": "from",
          "type": "address"
        },
        {
          "indexed": true,
          "internalType": "address",
          "name": "to",
          "type": "address"
        },
        {
          "indexed": true,
          "internalType": "uint256",
          "name": "tokenId",
          "type": "uint256"
        }
      ],
      "name": "Transfer",
      "type": "event"
    },
    {
      "anonymous": false,
      "inputs": [
        {
          "indexed": false,
          "internalType": "uint256",
          "name": "_price",
          "type": "uint256"
        },
        {
          "indexed": false,
          "internalType": "uint256",
          "name": "_maxMintable",
          "type": "uint256"
        },
        {
          "indexed": false,
          "internalType": "uint256",
          "name": "_likes",
          "type": "uint256"
        }
      ],
      "name": "UpdateState",
      "type": "event"
    },
    {
      "inputs": [
        {
          "internalType": "address",
          "name": "to",
          "type": "address"
        },
        {
          "internalType": "uint256",
          "name": "tokenId",
          "type": "uint256"
        }
      ],
      "name": "approve",
      "outputs": [],
      "stateMutability": "nonpayable",
      "type": "function"
    },
    {
      "inputs": [
        {
          "internalType": "address",
          "name": "owner",
          "type": "address"
        }
      ],
      "name": "balanceOf",
      "outputs": [
        {
          "internalType": "uint256",
          "name": "",
          "type": "uint256"
        }
      ],
      "stateMutability": "view",
      "type": "function",
      "constant": true
    },
    {
      "inputs": [
        {
          "internalType": "uint256",
          "name": "tokenId",
          "type": "uint256"
        }
      ],
      "name": "getApproved",
      "outputs": [
        {
          "internalType": "address",
          "name": "",
          "type": "address"
        }
      ],
      "stateMutability": "view",
      "type": "function",
      "constant": true
    },
    {
      "inputs": [
        {
          "internalType": "address",
          "name": "owner",
          "type": "address"
        },
        {
          "internalType": "address",
          "name": "operator",
          "type": "address"
        }
      ],
      "name": "isApprovedForAll",
      "outputs": [
        {
          "internalType": "bool",
          "name": "",
          "type": "bool"
        }
      ],
      "stateMutability": "view",
      "type": "function",
      "constant": true
    },
    {
      "inputs": [],
      "name": "name",
      "outputs": [
        {
          "internalType": "string",
          "name": "",
          "type": "string"
        }
      ],
      "stateMutability": "view",
      "type": "function",
      "constant": true
    },
    {
      "inputs": [],
      "name": "owner",
      "outputs": [
        {
          "internalType": "address",
          "name": "",
          "type": "address"
        }
      ],
      "stateMutability": "view",
      "type": "function",
      "constant": true
    },
    {
      "inputs": [
        {
          "internalType": "uint256",
          "name": "tokenId",
          "type": "uint256"
        }
      ],
      "name": "ownerOf",
      "outputs": [
        {
          "internalType": "address",
          "name": "",
          "type": "address"
        }
      ],
      "stateMutability": "view",
      "type": "function",
      "constant": true
    },
    {
      "inputs": [],
      "name": "renounceOwnership",
      "outputs": [],
      "stateMutability": "nonpayable",
      "type": "function"
    },
    {
      "inputs": [
        {
          "internalType": "address",
          "name": "from",
          "type": "address"
        },
        {
          "internalType": "address",
          "name": "to",
          "type": "address"
        },
        {
          "internalType": "uint256",
          "name": "tokenId",
          "type": "uint256"
        }
      ],
      "name": "safeTransferFrom",
      "outputs": [],
      "stateMutability": "nonpayable",
      "type": "function"
    },
    {
      "inputs": [
        {
          "internalType": "address",
          "name": "from",
          "type": "address"
        },
        {
          "internalType": "address",
          "name": "to",
          "type": "address"
        },
        {
          "internalType": "uint256",
          "name": "tokenId",
          "type": "uint256"
        },
        {
          "internalType": "bytes",
          "name": "_data",
          "type": "bytes"
        }
      ],
      "name": "safeTransferFrom",
      "outputs": [],
      "stateMutability": "nonpayable",
      "type": "function"
    },
    {
      "inputs": [
        {
          "internalType": "address",
          "name": "operator",
          "type": "address"
        },
        {
          "internalType": "bool",
          "name": "approved",
          "type": "bool"
        }
      ],
      "name": "setApprovalForAll",
      "outputs": [],
      "stateMutability": "nonpayable",
      "type": "function"
    },
    {
      "inputs": [
        {
          "internalType": "bytes4",
          "name": "interfaceId",
          "type": "bytes4"
        }
      ],
      "name": "supportsInterface",
      "outputs": [
        {
          "internalType": "bool",
          "name": "",
          "type": "bool"
        }
      ],
      "stateMutability": "view",
      "type": "function",
      "constant": true
    },
    {
      "inputs": [],
      "name": "symbol",
      "outputs": [
        {
          "internalType": "string",
          "name": "",
          "type": "string"
        }
      ],
      "stateMutability": "view",
      "type": "function",
      "constant": true
    },
    {
      "inputs": [
        {
          "internalType": "uint256",
          "name": "tokenId",
          "type": "uint256"
        }
      ],
      "name": "tokenURI",
      "outputs": [
        {
          "internalType": "string",
          "name": "",
          "type": "string"
        }
      ],
      "stateMutability": "view",
      "type": "function",
      "constant": true
    },
    {
      "inputs": [
        {
          "internalType": "address",
          "name": "from",
          "type": "address"
        },
        {
          "internalType": "address",
          "name": "to",
          "type": "address"
        },
        {
          "internalType": "uint256",
          "name": "tokenId",
          "type": "uint256"
        }
      ],
      "name": "transferFrom",
      "outputs": [],
      "stateMutability": "nonpayable",
      "type": "function"
    },
    {
      "inputs": [
        {
          "internalType": "address",
          "name": "newOwner",
          "type": "address"
        }
      ],
      "name": "transferOwnership",
      "outputs": [],
      "stateMutability": "nonpayable",
      "type": "function"
    },
    {
      "inputs": [
        {
          "internalType": "uint256",
          "name": "likes",
          "type": "uint256"
        }
      ],
      "name": "updateState",
      "outputs": [],
      "stateMutability": "nonpayable",
      "type": "function"
    },
    {
      "inputs": [],
      "name": "getLikes",
      "outputs": [
        {
          "internalType": "uint256",
          "name": "",
          "type": "uint256"
        }
      ],
      "stateMutability": "view",
      "type": "function",
      "constant": true
    },
    {
      "inputs": [],
      "name": "getMaxMintable",
      "outputs": [
        {
          "internalType": "uint256",
          "name": "",
          "type": "uint256"
        }
      ],
      "stateMutability": "view",
      "type": "function",
      "constant": true
    },
    {
      "inputs": [],
      "name": "getPrice",
      "outputs": [
        {
          "internalType": "uint256",
          "name": "",
          "type": "uint256"
        }
      ],
      "stateMutability": "view",
      "type": "function",
      "constant": true
    },
    {
      "inputs": [
        {
          "internalType": "string",
          "name": "customBaseURI_",
          "type": "string"
        }
      ],
      "name": "setBaseURI",
      "outputs": [],
      "stateMutability": "nonpayable",
      "type": "function"
    },
    {
      "inputs": [],
      "name": "purchase",
      "outputs": [],
      "stateMutability": "payable",
      "type": "function",
      "payable": true
    },
    {
      "inputs": [],
      "name": "currentSupply",
      "outputs": [
        {
          "internalType": "uint256",
          "name": "",
          "type": "uint256"
        }
      ],
      "stateMutability": "view",
      "type": "function",
      "constant": true
    }
  ],
  "bytecode": "0x60806040526000600c553480156200001657600080fd5b5060408051808201825260088152674e4654756c69707360c01b60208083019182528351808501909452600384526215155360ea1b9084015281519192916200006291600091620001b8565b50805162000078906001906020840190620001b8565b505050620000956200008f620000eb60201b60201c565b620000ef565b620000db6040518060400160405280602081526020017f68747470733a2f2f6170692e756e73706c6173682e636f6d2f70686f746f732f8152506200014160201b60201c565b6014600b556001600a55620002d0565b3390565b600780546001600160a01b038381166001600160a01b0319831681179093556040519116919082907f8be0079c531659141344cd1fd0a4f28419497f9722a3daafe3b4186f6b6457e090600090a35050565b6200014b620000eb565b6001600160a01b03166200015e620001a9565b6001600160a01b031614620001905760405162461bcd60e51b815260040162000187906200025e565b60405180910390fd5b8051620001a5906009906020840190620001b8565b5050565b6007546001600160a01b031690565b828054620001c69062000293565b90600052602060002090601f016020900481019282620001ea576000855562000235565b82601f106200020557805160ff191683800117855562000235565b8280016001018555821562000235579182015b828111156200023557825182559160200191906001019062000218565b506200024392915062000247565b5090565b5b8082111562000243576000815560010162000248565b6020808252818101527f4f776e61626c653a2063616c6c6572206973206e6f7420746865206f776e6572604082015260600190565b600281046001821680620002a857607f821691505b60208210811415620002ca57634e487b7160e01b600052602260045260246000fd5b50919050565b611d5880620002e06000396000f3fe6080604052600436106101405760003560e01c8063715018a6116100b6578063a22cb4651161006f578063a22cb46514610334578063b88d4fde14610354578063c87b56dd14610374578063cc8a55e214610394578063e985e9c5146103b4578063f2fde38b146103d457610140565b8063715018a6146102b6578063771282f6146102cb5780637b499bd4146102e05780638da5cb5b146102f557806395d89b411461030a57806398d5fdca1461031f57610140565b806342842e0e1161010857806342842e0e1461020c57806355f804b31461022c57806362a1c5831461024c5780636352211e1461026e57806364edfbf01461028e57806370a082311461029657610140565b806301ffc9a71461014557806306fdde031461017b578063081812fc1461019d578063095ea7b3146101ca57806323b872dd146101ec575b600080fd5b34801561015157600080fd5b506101656101603660046114ee565b6103f4565b6040516101729190611633565b60405180910390f35b34801561018757600080fd5b5061019061043c565b604051610172919061163e565b3480156101a957600080fd5b506101bd6101b836600461156c565b6104ce565b60405161017291906115e2565b3480156101d657600080fd5b506101ea6101e53660046114c5565b61051a565b005b3480156101f857600080fd5b506101ea6102073660046113d7565b6105b2565b34801561021857600080fd5b506101ea6102273660046113d7565b6105ea565b34801561023857600080fd5b506101ea610247366004611526565b610605565b34801561025857600080fd5b5061026161065b565b6040516101729190611bd2565b34801561027a57600080fd5b506101bd61028936600461156c565b610661565b6101ea610696565b3480156102a257600080fd5b506102616102b136600461138b565b610746565b3480156102c257600080fd5b506101ea61078a565b3480156102d757600080fd5b506102616107d5565b3480156102ec57600080fd5b506102616107e6565b34801561030157600080fd5b506101bd6107ec565b34801561031657600080fd5b506101906107fb565b34801561032b57600080fd5b5061026161080a565b34801561034057600080fd5b506101ea61034f36600461148b565b610810565b34801561036057600080fd5b506101ea61036f366004611412565b610822565b34801561038057600080fd5b5061019061038f36600461156c565b610861565b3480156103a057600080fd5b506101ea6103af36600461156c565b610982565b3480156103c057600080fd5b506101656103cf3660046113a5565b610a46565b3480156103e057600080fd5b506101ea6103ef36600461138b565b610a74565b60006001600160e01b031982166380ac58cd60e01b148061042557506001600160e01b03198216635b5e139f60e01b145b80610434575061043482610ae5565b90505b919050565b60606000805461044b90611c60565b80601f016020809104026020016040519081016040528092919081815260200182805461047790611c60565b80156104c45780601f10610499576101008083540402835291602001916104c4565b820191906000526020600020905b8154815290600101906020018083116104a757829003601f168201915b5050505050905090565b60006104d982610afe565b6104fe5760405162461bcd60e51b81526004016104f590611a27565b60405180910390fd5b506000908152600460205260409020546001600160a01b031690565b600061052582610661565b9050806001600160a01b0316836001600160a01b031614156105595760405162461bcd60e51b81526004016104f590611b40565b806001600160a01b031661056b610b1b565b6001600160a01b031614806105875750610587816103cf610b1b565b6105a35760405162461bcd60e51b81526004016104f590611843565b6105ad8383610b1f565b505050565b6105c36105bd610b1b565b82610b8d565b6105df5760405162461bcd60e51b81526004016104f590611b81565b6105ad838383610c0a565b6105ad83838360405180602001604052806000815250610822565b61060d610b1b565b6001600160a01b031661061e6107ec565b6001600160a01b0316146106445760405162461bcd60e51b81526004016104f590611a73565b805161065790600990602084019061126b565b5050565b600c5490565b6000818152600260205260408120546001600160a01b0316806104345760405162461bcd60e51b81526004016104f5906118ea565b600a543410156106b85760405162461bcd60e51b81526004016104f590611651565b6000806106c36107ec565b6001600160a01b0316346040516106d9906115df565b60006040518083038185875af1925050503d8060008114610716576040519150601f19603f3d011682016040523d82523d6000602084013e61071b565b606091505b50915091508161073d5760405162461bcd60e51b81526004016104f59061174e565b61065733610d37565b60006001600160a01b03821661076e5760405162461bcd60e51b81526004016104f5906118a0565b506001600160a01b031660009081526003602052604090205490565b610792610b1b565b6001600160a01b03166107a36107ec565b6001600160a01b0316146107c95760405162461bcd60e51b81526004016104f590611a73565b6107d36000610d84565b565b60006107e16008610dd6565b905090565b600b5490565b6007546001600160a01b031690565b60606001805461044b90611c60565b600a5490565b61065761081b610b1b565b8383610dda565b61083361082d610b1b565b83610b8d565b61084f5760405162461bcd60e51b81526004016104f590611b81565b61085b84848484610e7d565b50505050565b606061086c82610afe565b6108885760405162461bcd60e51b81526004016104f59061199f565b600082815260066020526040812080546108a190611c60565b80601f01602080910402602001604051908101604052809291908181526020018280546108cd90611c60565b801561091a5780601f106108ef5761010080835404028352916020019161091a565b820191906000526020600020905b8154815290600101906020018083116108fd57829003601f168201915b50505050509050600061092b610eb0565b905080516000141561093f57509050610437565b8151156109715780826040516020016109599291906115b0565b60405160208183030381529060405292505050610437565b61097a84610ebf565b949350505050565b600c54156109f9576000600c548261099a9190611c1d565b905080156109f75780600b546109b09190611c1d565b600b8190556109bf6008610dd6565b11156109dd5760405162461bcd60e51b81526004016104f590611968565b600a546109eb906001611bf1565b600a556109f782610f42565b505b610a0281610f42565b7f5214be79f0ab5d9389c36ffa81297a4a6f3b545d51db0bcbb61e42215ea32eca600a54600b54600c54604051610a3b93929190611bdb565b60405180910390a150565b6001600160a01b03918216600090815260056020908152604080832093909416825291909152205460ff1690565b610a7c610b1b565b6001600160a01b0316610a8d6107ec565b6001600160a01b031614610ab35760405162461bcd60e51b81526004016104f590611a73565b6001600160a01b038116610ad95760405162461bcd60e51b81526004016104f5906116d1565b610ae281610d84565b50565b6001600160e01b031981166301ffc9a760e01b14919050565b6000908152600260205260409020546001600160a01b0316151590565b3390565b600081815260046020526040902080546001600160a01b0319166001600160a01b0384169081179091558190610b5482610661565b6001600160a01b03167f8c5be1e5ebec7d5bd14f71427d1e84f3dd0314c0f7b2291e5b200ac8c7c3b92560405160405180910390a45050565b6000610b9882610afe565b610bb45760405162461bcd60e51b81526004016104f5906117f7565b6000610bbf83610661565b9050806001600160a01b0316846001600160a01b03161480610bfa5750836001600160a01b0316610bef846104ce565b6001600160a01b0316145b8061097a575061097a8185610a46565b826001600160a01b0316610c1d82610661565b6001600160a01b031614610c435760405162461bcd60e51b81526004016104f590611aa8565b6001600160a01b038216610c695760405162461bcd60e51b81526004016104f59061177c565b610c748383836105ad565b610c7f600082610b1f565b6001600160a01b0383166000908152600360205260408120805460019290610ca8908490611c1d565b90915550506001600160a01b0382166000908152600360205260408120805460019290610cd6908490611bf1565b909155505060008181526002602052604080822080546001600160a01b0319166001600160a01b0386811691821790925591518493918716917fddf252ad1be2c89b69c2b068fc378daa952ba7f163c4a11628f55a4df523b3ef91a4505050565b610d416008610f47565b600b54610d4e6008610dd6565b1115610d6c5760405162461bcd60e51b81526004016104f5906119f0565b6000610d786008610dd6565b90506106578282610f50565b600780546001600160a01b038381166001600160a01b0319831681179093556040519116919082907f8be0079c531659141344cd1fd0a4f28419497f9722a3daafe3b4186f6b6457e090600090a35050565b5490565b816001600160a01b0316836001600160a01b03161415610e0c5760405162461bcd60e51b81526004016104f5906117c0565b6001600160a01b0383811660008181526005602090815260408083209487168084529490915290819020805460ff1916851515179055517f17307eab39ab6107e8899845ad3d59bd9653f200f220920489ca2b5937696c3190610e70908590611633565b60405180910390a3505050565b610e88848484610c0a565b610e948484848461102f565b61085b5760405162461bcd60e51b81526004016104f59061167f565b60606009805461044b90611c60565b6060610eca82610afe565b610ee65760405162461bcd60e51b81526004016104f590611af1565b6000610ef0610eb0565b90506000815111610f105760405180602001604052806000815250610f3b565b80610f1a8461114a565b604051602001610f2b9291906115b0565b6040516020818303038152906040525b9392505050565b600c55565b80546001019055565b6001600160a01b038216610f765760405162461bcd60e51b81526004016104f590611933565b610f7f81610afe565b15610f9c5760405162461bcd60e51b81526004016104f590611717565b610fa8600083836105ad565b6001600160a01b0382166000908152600360205260408120805460019290610fd1908490611bf1565b909155505060008181526002602052604080822080546001600160a01b0319166001600160a01b03861690811790915590518392907fddf252ad1be2c89b69c2b068fc378daa952ba7f163c4a11628f55a4df523b3ef908290a45050565b6000611043846001600160a01b0316611265565b1561113f57836001600160a01b031663150b7a0261105f610b1b565b8786866040518563ffffffff1660e01b815260040161108194939291906115f6565b602060405180830381600087803b15801561109b57600080fd5b505af19250505080156110cb575060408051601f3d908101601f191682019092526110c89181019061150a565b60015b611125573d8080156110f9576040519150601f19603f3d011682016040523d82523d6000602084013e6110fe565b606091505b50805161111d5760405162461bcd60e51b81526004016104f59061167f565b805181602001fd5b6001600160e01b031916630a85bd0160e11b14905061097a565b506001949350505050565b60608161116f57506040805180820190915260018152600360fc1b6020820152610437565b8160005b8115611199578061118381611c9b565b91506111929050600a83611c09565b9150611173565b60008167ffffffffffffffff8111156111c257634e487b7160e01b600052604160045260246000fd5b6040519080825280601f01601f1916602001820160405280156111ec576020820181803683370190505b5090505b841561097a57611201600183611c1d565b915061120e600a86611cb6565b611219906030611bf1565b60f81b81838151811061123c57634e487b7160e01b600052603260045260246000fd5b60200101906001600160f81b031916908160001a90535061125e600a86611c09565b94506111f0565b3b151590565b82805461127790611c60565b90600052602060002090601f01602090048101928261129957600085556112df565b82601f106112b257805160ff19168380011785556112df565b828001600101855582156112df579182015b828111156112df5782518255916020019190600101906112c4565b506112eb9291506112ef565b5090565b5b808211156112eb57600081556001016112f0565b600067ffffffffffffffff8084111561131f5761131f611cf6565b604051601f8501601f19168101602001828111828210171561134357611343611cf6565b60405284815291508183850186101561135b57600080fd5b8484602083013760006020868301015250509392505050565b80356001600160a01b038116811461043757600080fd5b60006020828403121561139c578081fd5b610f3b82611374565b600080604083850312156113b7578081fd5b6113c083611374565b91506113ce60208401611374565b90509250929050565b6000806000606084860312156113eb578081fd5b6113f484611374565b925061140260208501611374565b9150604084013590509250925092565b60008060008060808587031215611427578081fd5b61143085611374565b935061143e60208601611374565b925060408501359150606085013567ffffffffffffffff811115611460578182fd5b8501601f81018713611470578182fd5b61147f87823560208401611304565b91505092959194509250565b6000806040838503121561149d578182fd5b6114a683611374565b9150602083013580151581146114ba578182fd5b809150509250929050565b600080604083850312156114d7578182fd5b6114e083611374565b946020939093013593505050565b6000602082840312156114ff578081fd5b8135610f3b81611d0c565b60006020828403121561151b578081fd5b8151610f3b81611d0c565b600060208284031215611537578081fd5b813567ffffffffffffffff81111561154d578182fd5b8201601f8101841361155d578182fd5b61097a84823560208401611304565b60006020828403121561157d578081fd5b5035919050565b6000815180845261159c816020860160208601611c34565b601f01601f19169290920160200192915050565b600083516115c2818460208801611c34565b8351908301906115d6818360208801611c34565b01949350505050565b90565b6001600160a01b0391909116815260200190565b6001600160a01b038581168252841660208201526040810183905260806060820181905260009061162990830184611584565b9695505050505050565b901515815260200190565b600060208252610f3b6020830184611584565b6020808252601490820152732737ba1032b737bab3b41022aa241039b2b73a1760611b604082015260600190565b60208082526032908201527f4552433732313a207472616e7366657220746f206e6f6e20455243373231526560408201527131b2b4bb32b91034b6b83632b6b2b73a32b960711b606082015260800190565b60208082526026908201527f4f776e61626c653a206e6577206f776e657220697320746865207a65726f206160408201526564647265737360d01b606082015260800190565b6020808252601c908201527f4552433732313a20746f6b656e20616c7265616479206d696e74656400000000604082015260600190565b6020808252601490820152732330b4b632b2103a379039b2b7321022ba3432b960611b604082015260600190565b60208082526024908201527f4552433732313a207472616e7366657220746f20746865207a65726f206164646040820152637265737360e01b606082015260800190565b60208082526019908201527f4552433732313a20617070726f766520746f2063616c6c657200000000000000604082015260600190565b6020808252602c908201527f4552433732313a206f70657261746f7220717565727920666f72206e6f6e657860408201526b34b9ba32b73a103a37b5b2b760a11b606082015260800190565b60208082526038908201527f4552433732313a20617070726f76652063616c6c6572206973206e6f74206f7760408201527f6e6572206e6f7220617070726f76656420666f7220616c6c0000000000000000606082015260800190565b6020808252602a908201527f4552433732313a2062616c616e636520717565727920666f7220746865207a65604082015269726f206164647265737360b01b606082015260800190565b60208082526029908201527f4552433732313a206f776e657220717565727920666f72206e6f6e657869737460408201526832b73a103a37b5b2b760b91b606082015260800190565b6020808252818101527f4552433732313a206d696e7420746f20746865207a65726f2061646472657373604082015260600190565b6020808252601d908201527f50726f6a6563742069732066696e6973686564206d696e6974696e672e000000604082015260600190565b60208082526031908201527f45524337323155524953746f726167653a2055524920717565727920666f72206040820152703737b732bc34b9ba32b73a103a37b5b2b760791b606082015260800190565b6020808252601c908201527f50726f6a6563742069732066696e6973686564206d696e74696e672e00000000604082015260600190565b6020808252602c908201527f4552433732313a20617070726f76656420717565727920666f72206e6f6e657860408201526b34b9ba32b73a103a37b5b2b760a11b606082015260800190565b6020808252818101527f4f776e61626c653a2063616c6c6572206973206e6f7420746865206f776e6572604082015260600190565b60208082526029908201527f4552433732313a207472616e73666572206f6620746f6b656e2074686174206960408201526839903737ba1037bbb760b91b606082015260800190565b6020808252602f908201527f4552433732314d657461646174613a2055524920717565727920666f72206e6f60408201526e3732bc34b9ba32b73a103a37b5b2b760891b606082015260800190565b60208082526021908201527f4552433732313a20617070726f76616c20746f2063757272656e74206f776e656040820152603960f91b606082015260800190565b60208082526031908201527f4552433732313a207472616e736665722063616c6c6572206973206e6f74206f6040820152701ddb995c881b9bdc88185c1c1c9bdd9959607a1b606082015260800190565b90815260200190565b9283526020830191909152604082015260600190565b60008219821115611c0457611c04611cca565b500190565b600082611c1857611c18611ce0565b500490565b600082821015611c2f57611c2f611cca565b500390565b60005b83811015611c4f578181015183820152602001611c37565b8381111561085b5750506000910152565b600281046001821680611c7457607f821691505b60208210811415611c9557634e487b7160e01b600052602260045260246000fd5b50919050565b6000600019821415611caf57611caf611cca565b5060010190565b600082611cc557611cc5611ce0565b500690565b634e487b7160e01b600052601160045260246000fd5b634e487b7160e01b600052601260045260246000fd5b634e487b7160e01b600052604160045260246000fd5b6001600160e01b031981168114610ae257600080fdfea264697066735822122090ee695c3adaf09d5db4b90c91cdce238cb3a2e0d26668743ecf0171514eb9b064736f6c63430008000033",
  "immutableReferences": {},
  "source": "// SPDX-License-Identifier: MIT\npragma solidity ^0.8.0;\n\nimport \"@openzeppelin/contracts/token/ERC721/ERC721.sol\";\nimport \"@openzeppelin/contracts/token/ERC721/extensions/ERC721URIStorage.sol\";\nimport \"@openzeppelin/contracts/utils/Counters.sol\";\nimport \"@openzeppelin/contracts/access/Ownable.sol\";\n\n/**\n    @dev Contract that provides an NFT mining process that creates an NFT. \n    And based on the likes of the contract the initial supply of the NFT decreases.\n    This contract inherites ERC721UTIStorage and Ownable contracts from Openzeppelin.\n */\n\ncontract NFTulips is ERC721URIStorage, Ownable{\n    using Counters for Counters.Counter;\n    using Strings for uint256;\n    // stores the current supply of the NFT\n    Counters.Counter private _tokenIds;\n\n    string private _customBaseURI;\n    uint256 private _price;\n    uint256 private _maxMintable;\n    uint256 private _likes=0;\n\n    event UpdateState(uint256 _price, uint256 _maxMintable, uint256 _likes);    \n\n    /**\n        @dev Initialzes the NFT by giving name and symbol and sets the maximum number of mintable nfts and the price.\n     */\n    constructor() ERC721(\"NFTulips\", \"TUL\") {\n        setBaseURI(\"https://api.unsplash.com/photos/\");\n        _maxMintable = 20;\n        _price = 1;\n    }\n\n    /**\n        @dev Stores the likes in the state variable _likes\n        @param likes The likes of the image retrieved by the api    \n     */\n\n    function setLikes(uint256 likes) private {\n        _likes = likes;\n    }\n\n    /**\n        @dev A function that updates the state variables based on the difference of current likes and previous likes of the image.\n        When the likes increases the number of the nfts that can be minted decreases. Moreover the price of the nft increaces by 1.\n        If likes decreases no transaction can be completed.\n        @param likes the number of the reactions retrieved by the api and passed through the javascript inyp the smart contract.\n     */\n    function updateState(uint256 likes) public{\n        if(_likes!=0){\n            uint256 d = likes - _likes;\n            if(d>0){\n                _maxMintable = _maxMintable - d;\n                require(_tokenIds.current() <= _maxMintable, \"Project is finished miniting.\");\n                _price = _price + 1;\n                setLikes(likes);\n            }     \n\n        }\n        setLikes(likes);\n        emit UpdateState(_price, _maxMintable, _likes);\n        \n    }\n\n    /**\n        @dev getter function that returns the number of likes stored in the state variable _likes\n        @return uint256 the state variable _likes\n     */\n    function getLikes() public view returns(uint256){\n        return _likes;\n    }\n\n    /**\n        @dev getter function that returns the number of the nfts that can be minted\n        @return uint256 the state variable _maxMintable\n     */\n    function getMaxMintable() public view returns(uint256){\n        return _maxMintable;\n    }\n\n    /**\n        @dev getteer function that returns the price of the nfts\n        @return uint256 the state variable _price\n     */\n    function getPrice() public view returns(uint256){\n        return _price;\n    }\n\n    /**\n        @dev a function that changes the base uri of the nft. This function can be called inly from the owner of the contract.\n        @param customBaseURI_ The new base uri \n     */\n    function setBaseURI(string memory customBaseURI_) public onlyOwner {\n        _customBaseURI = customBaseURI_;\n    }\n\n    /**\n        @dev a function that returns the baseuri, overrided by the ERC721URIStorage contract.\n        @return string the base uri\n     */\n    function _baseURI() internal view virtual override returns (string memory){\n        return _customBaseURI;\n    }\n    \n    /**\n        @dev a payable function that transfer the money from the buyer to the owner of the nft. The buyer receives the nft.\n     */\n    function purchase() public payable{\n        require(msg.value >= _price, \"Not enough ETH sent.\");\n\n        (bool sent, bytes memory data) = payable(owner()).call{value: msg.value}(\"\");\n        require(sent, 'Failed to send Ether');\n        mintForPurchase(msg.sender);\n    }\n\n    /**\n        @dev a function tha returns the number of the nfts that have been minted.\n        @return uint256 the number of the nfts that have been minted.\n     */\n    function currentSupply() public view returns (uint256){\n        return _tokenIds.current();\n    }\n\n    /**\n        @dev the buyer can mint the nft after purchace it.\n        @param recipient the nft buyer\n     */\n    function mintForPurchase(address recipient) private{\n        _tokenIds.increment();\n\n        require(_tokenIds.current() <= _maxMintable, \"Project is finished minting.\");\n        uint256 newItemId = _tokenIds.current();\n        _mint(recipient, newItemId);\n    }\n}",
  "sourcePath": "/home/maria/Documents/blockchain-developer-bootcamp-final-project/contracts/NFTulips.sol",
  "compiler": {
    "name": "solc",
    "version": "0.8.0+commit.c7dfd78e.Emscripten.clang"
  },
  "schemaVersion": "3.4.3",
  "updatedAt": "2022-01-15T12:47:41.846Z",
  "networkType": "ethereum",
  "devdoc": {
    "details": "Contract that provides an NFT mining process that creates an NFT.  And based on the likes of the contract the initial supply of the NFT decreases. This contract inherites ERC721UTIStorage and Ownable contracts from Openzeppelin.",
    "kind": "dev",
    "methods": {
      "approve(address,uint256)": {
        "details": "See {IERC721-approve}."
      },
      "balanceOf(address)": {
        "details": "See {IERC721-balanceOf}."
      },
      "constructor": {
        "details": "Initialzes the NFT by giving name and symbol and sets the maximum number of mintable nfts and the price."
      },
      "currentSupply()": {
        "details": "a function tha returns the number of the nfts that have been minted.",
        "returns": {
          "_0": "uint256 the number of the nfts that have been minted."
        }
      },
      "getApproved(uint256)": {
        "details": "See {IERC721-getApproved}."
      },
      "getLikes()": {
        "details": "getter function that returns the number of likes stored in the state variable _likes",
        "returns": {
          "_0": "uint256 the state variable _likes"
        }
      },
      "getMaxMintable()": {
        "details": "getter function that returns the number of the nfts that can be minted",
        "returns": {
          "_0": "uint256 the state variable _maxMintable"
        }
      },
      "getPrice()": {
        "details": "getteer function that returns the price of the nfts",
        "returns": {
          "_0": "uint256 the state variable _price"
        }
      },
      "isApprovedForAll(address,address)": {
        "details": "See {IERC721-isApprovedForAll}."
      },
      "name()": {
        "details": "See {IERC721Metadata-name}."
      },
      "owner()": {
        "details": "Returns the address of the current owner."
      },
      "ownerOf(uint256)": {
        "details": "See {IERC721-ownerOf}."
      },
      "purchase()": {
        "details": "a payable function that transfer the money from the buyer to the owner of the nft. The buyer receives the nft."
      },
      "renounceOwnership()": {
        "details": "Leaves the contract without owner. It will not be possible to call `onlyOwner` functions anymore. Can only be called by the current owner. NOTE: Renouncing ownership will leave the contract without an owner, thereby removing any functionality that is only available to the owner."
      },
      "safeTransferFrom(address,address,uint256)": {
        "details": "See {IERC721-safeTransferFrom}."
      },
      "safeTransferFrom(address,address,uint256,bytes)": {
        "details": "See {IERC721-safeTransferFrom}."
      },
      "setApprovalForAll(address,bool)": {
        "details": "See {IERC721-setApprovalForAll}."
      },
      "setBaseURI(string)": {
        "details": "a function that changes the base uri of the nft. This function can be called inly from the owner of the contract.",
        "params": {
          "customBaseURI_": "The new base uri "
        }
      },
      "supportsInterface(bytes4)": {
        "details": "See {IERC165-supportsInterface}."
      },
      "symbol()": {
        "details": "See {IERC721Metadata-symbol}."
      },
      "tokenURI(uint256)": {
        "details": "See {IERC721Metadata-tokenURI}."
      },
      "transferFrom(address,address,uint256)": {
        "details": "See {IERC721-transferFrom}."
      },
      "transferOwnership(address)": {
        "details": "Transfers ownership of the contract to a new account (`newOwner`). Can only be called by the current owner."
      },
      "updateState(uint256)": {
        "details": "A function that updates the state variables based on the difference of current likes and previous likes of the image. When the likes increases the number of the nfts that can be minted decreases. Moreover the price of the nft increaces by 1. If likes decreases no transaction can be completed.",
        "params": {
          "likes": "the number of the reactions retrieved by the api and passed through the javascript inyp the smart contract."
        }
      }
    },
    "version": 1
  },
  "userdoc": {
    "kind": "user",
    "methods": {},
    "version": 1
  }
}